{
  "_format": "hh-sol-artifact-1",
  "contractName": "Clinica",
  "sourceName": "contracts/Clinica.sol",
  "abi": [
    {
      "inputs": [
        {
          "internalType": "address",
          "name": "initialOwner",
          "type": "address"
        }
      ],
      "stateMutability": "nonpayable",
      "type": "constructor"
    },
    {
      "inputs": [],
      "name": "EnforcedPause",
      "type": "error"
    },
    {
      "inputs": [],
      "name": "ExpectedPause",
      "type": "error"
    },
    {
      "inputs": [],
      "name": "MensajeDemasiadoLargo",
      "type": "error"
    },
    {
      "inputs": [],
      "name": "MontoDebeSerMayorACero",
      "type": "error"
    },
    {
      "inputs": [
        {
          "internalType": "address",
          "name": "owner",
          "type": "address"
        }
      ],
      "name": "OwnableInvalidOwner",
      "type": "error"
    },
    {
      "inputs": [
        {
          "internalType": "address",
          "name": "account",
          "type": "address"
        }
      ],
      "name": "OwnableUnauthorizedAccount",
      "type": "error"
    },
    {
      "inputs": [],
      "name": "TransferenciaFallida",
      "type": "error"
    },
    {
      "anonymous": false,
      "inputs": [
        {
          "indexed": true,
          "internalType": "uint256",
          "name": "donacionId",
          "type": "uint256"
        },
        {
          "indexed": true,
          "internalType": "address",
          "name": "donante",
          "type": "address"
        },
        {
          "indexed": false,
          "internalType": "uint256",
          "name": "cantidad",
          "type": "uint256"
        },
        {
          "indexed": false,
          "internalType": "uint256",
          "name": "fecha",
          "type": "uint256"
        },
        {
          "indexed": false,
          "internalType": "string",
          "name": "mensaje",
          "type": "string"
        }
      ],
      "name": "DonacionRecibida",
      "type": "event"
    },
    {
      "anonymous": false,
      "inputs": [
        {
          "indexed": true,
          "internalType": "address",
          "name": "previousOwner",
          "type": "address"
        },
        {
          "indexed": true,
          "internalType": "address",
          "name": "newOwner",
          "type": "address"
        }
      ],
      "name": "OwnershipTransferred",
      "type": "event"
    },
    {
      "anonymous": false,
      "inputs": [
        {
          "indexed": false,
          "internalType": "address",
          "name": "account",
          "type": "address"
        }
      ],
      "name": "Paused",
      "type": "event"
    },
    {
      "anonymous": false,
      "inputs": [
        {
          "indexed": false,
          "internalType": "address",
          "name": "account",
          "type": "address"
        }
      ],
      "name": "Unpaused",
      "type": "event"
    },
    {
      "inputs": [
        {
          "internalType": "uint256",
          "name": "",
          "type": "uint256"
        }
      ],
      "name": "donaciones",
      "outputs": [
        {
          "internalType": "uint256",
          "name": "id",
          "type": "uint256"
        },
        {
          "internalType": "address",
          "name": "donante",
          "type": "address"
        },
        {
          "internalType": "uint256",
          "name": "cantidad",
          "type": "uint256"
        },
        {
          "internalType": "uint256",
          "name": "fecha",
          "type": "uint256"
        },
        {
          "internalType": "string",
          "name": "mensaje",
          "type": "string"
        }
      ],
      "stateMutability": "view",
      "type": "function"
    },
    {
      "inputs": [
        {
          "internalType": "string",
          "name": "_mensaje",
          "type": "string"
        }
      ],
      "name": "donar",
      "outputs": [],
      "stateMutability": "payable",
      "type": "function"
    },
    {
      "inputs": [],
      "name": "owner",
      "outputs": [
        {
          "internalType": "address",
          "name": "",
          "type": "address"
        }
      ],
      "stateMutability": "view",
      "type": "function"
    },
    {
      "inputs": [],
      "name": "pausar",
      "outputs": [],
      "stateMutability": "nonpayable",
      "type": "function"
    },
    {
      "inputs": [],
      "name": "paused",
      "outputs": [
        {
          "internalType": "bool",
          "name": "",
          "type": "bool"
        }
      ],
      "stateMutability": "view",
      "type": "function"
    },
    {
      "inputs": [],
      "name": "reanudar",
      "outputs": [],
      "stateMutability": "nonpayable",
      "type": "function"
    },
    {
      "inputs": [],
      "name": "reclamarFondos",
      "outputs": [],
      "stateMutability": "nonpayable",
      "type": "function"
    },
    {
      "inputs": [],
      "name": "renounceOwnership",
      "outputs": [],
      "stateMutability": "nonpayable",
      "type": "function"
    },
    {
      "inputs": [],
      "name": "totalDonado",
      "outputs": [
        {
          "internalType": "uint256",
          "name": "",
          "type": "uint256"
        }
      ],
      "stateMutability": "view",
      "type": "function"
    },
    {
      "inputs": [
        {
          "internalType": "address",
          "name": "newOwner",
          "type": "address"
        }
      ],
      "name": "transferOwnership",
      "outputs": [],
      "stateMutability": "nonpayable",
      "type": "function"
    }
  ],
  "bytecode": "0x60806040523480156200001157600080fd5b506040516200139e3803806200139e8339818101604052810190620000379190620001f4565b80600073ffffffffffffffffffffffffffffffffffffffff168173ffffffffffffffffffffffffffffffffffffffff1603620000ad5760006040517f1e4fbdf7000000000000000000000000000000000000000000000000000000008152600401620000a4919062000237565b60405180910390fd5b620000be81620000c660201b60201c565b505062000254565b60008060009054906101000a900473ffffffffffffffffffffffffffffffffffffffff169050816000806101000a81548173ffffffffffffffffffffffffffffffffffffffff021916908373ffffffffffffffffffffffffffffffffffffffff1602179055508173ffffffffffffffffffffffffffffffffffffffff168173ffffffffffffffffffffffffffffffffffffffff167f8be0079c531659141344cd1fd0a4f28419497f9722a3daafe3b4186f6b6457e060405160405180910390a35050565b600080fd5b600073ffffffffffffffffffffffffffffffffffffffff82169050919050565b6000620001bc826200018f565b9050919050565b620001ce81620001af565b8114620001da57600080fd5b50565b600081519050620001ee81620001c3565b92915050565b6000602082840312156200020d576200020c6200018a565b5b60006200021d84828501620001dd565b91505092915050565b6200023181620001af565b82525050565b60006020820190506200024e600083018462000226565b92915050565b61113a80620002646000396000f3fe6080604052600436106100915760003560e01c80638da5cb5b116100595780638da5cb5b1461014c578063e5defce014610177578063f12f33db146101a2578063f2fde38b146101b9578063fa3f8448146101e257610091565b806310b52cdd146100965780632fe70653146100d75780635c975abb146100f3578063715018a61461011e57806383d6d08714610135575b600080fd5b3480156100a257600080fd5b506100bd60048036038101906100b8919061094d565b6101f9565b6040516100ce959493929190610a5a565b60405180910390f35b6100f160048036038101906100ec9190610be9565b6102d7565b005b3480156100ff57600080fd5b506101086104b2565b6040516101159190610c4d565b60405180910390f35b34801561012a57600080fd5b506101336104c8565b005b34801561014157600080fd5b5061014a6104dc565b005b34801561015857600080fd5b506101616104ee565b60405161016e9190610c68565b60405180910390f35b34801561018357600080fd5b5061018c610517565b6040516101999190610c83565b60405180910390f35b3480156101ae57600080fd5b506101b761051d565b005b3480156101c557600080fd5b506101e060048036038101906101db9190610cca565b6105d2565b005b3480156101ee57600080fd5b506101f7610658565b005b60036020528060005260406000206000915090508060000154908060010160009054906101000a900473ffffffffffffffffffffffffffffffffffffffff169080600201549080600301549080600401805461025490610d26565b80601f016020809104026020016040519081016040528092919081815260200182805461028090610d26565b80156102cd5780601f106102a2576101008083540402835291602001916102cd565b820191906000526020600020905b8154815290600101906020018083116102b057829003601f168201915b5050505050905085565b6102df61066a565b60003403610319576040517f20cf0bf500000000000000000000000000000000000000000000000000000000815260040160405180910390fd5b606481511115610355576040517fc3e50ebf00000000000000000000000000000000000000000000000000000000815260040160405180910390fd5b60006002549050346001600082825461036e9190610d86565b925050819055506040518060a001604052808281526020013373ffffffffffffffffffffffffffffffffffffffff16815260200134815260200142815260200183815250600360008381526020019081526020016000206000820151816000015560208201518160010160006101000a81548173ffffffffffffffffffffffffffffffffffffffff021916908373ffffffffffffffffffffffffffffffffffffffff1602179055506040820151816002015560608201518160030155608082015181600401908161043f9190610f66565b509050503373ffffffffffffffffffffffffffffffffffffffff16817fea7c48e3caf3994efe9d5facbc7e37c52c8537a18fddcbdd7a558ff335479dbc34428660405161048e93929190611038565b60405180910390a3600260008154809291906104a990611076565b91905055505050565b60008060149054906101000a900460ff16905090565b6104d06106ab565b6104da6000610732565b565b6104e46106ab565b6104ec6107f6565b565b60008060009054906101000a900473ffffffffffffffffffffffffffffffffffffffff16905090565b60015481565b6105256106ab565b600061052f6104ee565b73ffffffffffffffffffffffffffffffffffffffff1647604051610552906110ef565b60006040518083038185875af1925050503d806000811461058f576040519150601f19603f3d011682016040523d82523d6000602084013e610594565b606091505b50509050806105cf576040517f8a6c667700000000000000000000000000000000000000000000000000000000815260040160405180910390fd5b50565b6105da6106ab565b600073ffffffffffffffffffffffffffffffffffffffff168173ffffffffffffffffffffffffffffffffffffffff160361064c5760006040517f1e4fbdf70000000000000000000000000000000000000000000000000000000081526004016106439190610c68565b60405180910390fd5b61065581610732565b50565b6106606106ab565b610668610859565b565b6106726104b2565b156106a9576040517fd93c066500000000000000000000000000000000000000000000000000000000815260040160405180910390fd5b565b6106b36108bb565b73ffffffffffffffffffffffffffffffffffffffff166106d16104ee565b73ffffffffffffffffffffffffffffffffffffffff1614610730576106f46108bb565b6040517f118cdaa70000000000000000000000000000000000000000000000000000000081526004016107279190610c68565b60405180910390fd5b565b60008060009054906101000a900473ffffffffffffffffffffffffffffffffffffffff169050816000806101000a81548173ffffffffffffffffffffffffffffffffffffffff021916908373ffffffffffffffffffffffffffffffffffffffff1602179055508173ffffffffffffffffffffffffffffffffffffffff168173ffffffffffffffffffffffffffffffffffffffff167f8be0079c531659141344cd1fd0a4f28419497f9722a3daafe3b4186f6b6457e060405160405180910390a35050565b6107fe61066a565b6001600060146101000a81548160ff0219169083151502179055507f62e78cea01bee320cd4e420270b5ea74000d11b0c9f74754ebdbfc544b05a2586108426108bb565b60405161084f9190610c68565b60405180910390a1565b6108616108c3565b60008060146101000a81548160ff0219169083151502179055507f5db9ee0a495bf2e6ff9c91a7834c1ba4fdd244a5e8aa4e537bd38aeae4b073aa6108a46108bb565b6040516108b19190610c68565b60405180910390a1565b600033905090565b6108cb6104b2565b610901576040517f8dfc202b00000000000000000000000000000000000000000000000000000000815260040160405180910390fd5b565b6000604051905090565b600080fd5b600080fd5b6000819050919050565b61092a81610917565b811461093557600080fd5b50565b60008135905061094781610921565b92915050565b6000602082840312156109635761096261090d565b5b600061097184828501610938565b91505092915050565b61098381610917565b82525050565b600073ffffffffffffffffffffffffffffffffffffffff82169050919050565b60006109b482610989565b9050919050565b6109c4816109a9565b82525050565b600081519050919050565b600082825260208201905092915050565b60005b83811015610a045780820151818401526020810190506109e9565b60008484015250505050565b6000601f19601f8301169050919050565b6000610a2c826109ca565b610a3681856109d5565b9350610a468185602086016109e6565b610a4f81610a10565b840191505092915050565b600060a082019050610a6f600083018861097a565b610a7c60208301876109bb565b610a89604083018661097a565b610a96606083018561097a565b8181036080830152610aa88184610a21565b90509695505050505050565b600080fd5b600080fd5b7f4e487b7100000000000000000000000000000000000000000000000000000000600052604160045260246000fd5b610af682610a10565b810181811067ffffffffffffffff82111715610b1557610b14610abe565b5b80604052505050565b6000610b28610903565b9050610b348282610aed565b919050565b600067ffffffffffffffff821115610b5457610b53610abe565b5b610b5d82610a10565b9050602081019050919050565b82818337600083830152505050565b6000610b8c610b8784610b39565b610b1e565b905082815260208101848484011115610ba857610ba7610ab9565b5b610bb3848285610b6a565b509392505050565b600082601f830112610bd057610bcf610ab4565b5b8135610be0848260208601610b79565b91505092915050565b600060208284031215610bff57610bfe61090d565b5b600082013567ffffffffffffffff811115610c1d57610c1c610912565b5b610c2984828501610bbb565b91505092915050565b60008115159050919050565b610c4781610c32565b82525050565b6000602082019050610c626000830184610c3e565b92915050565b6000602082019050610c7d60008301846109bb565b92915050565b6000602082019050610c98600083018461097a565b92915050565b610ca7816109a9565b8114610cb257600080fd5b50565b600081359050610cc481610c9e565b92915050565b600060208284031215610ce057610cdf61090d565b5b6000610cee84828501610cb5565b91505092915050565b7f4e487b7100000000000000000000000000000000000000000000000000000000600052602260045260246000fd5b60006002820490506001821680610d3e57607f821691505b602082108103610d5157610d50610cf7565b5b50919050565b7f4e487b7100000000000000000000000000000000000000000000000000000000600052601160045260246000fd5b6000610d9182610917565b9150610d9c83610917565b9250828201905080821115610db457610db3610d57565b5b92915050565b60008190508160005260206000209050919050565b60006020601f8301049050919050565b600082821b905092915050565b600060088302610e1c7fffffffffffffffffffffffffffffffffffffffffffffffffffffffffffffffff82610ddf565b610e268683610ddf565b95508019841693508086168417925050509392505050565b6000819050919050565b6000610e63610e5e610e5984610917565b610e3e565b610917565b9050919050565b6000819050919050565b610e7d83610e48565b610e91610e8982610e6a565b848454610dec565b825550505050565b600090565b610ea6610e99565b610eb1818484610e74565b505050565b5b81811015610ed557610eca600082610e9e565b600181019050610eb7565b5050565b601f821115610f1a57610eeb81610dba565b610ef484610dcf565b81016020851015610f03578190505b610f17610f0f85610dcf565b830182610eb6565b50505b505050565b600082821c905092915050565b6000610f3d60001984600802610f1f565b1980831691505092915050565b6000610f568383610f2c565b9150826002028217905092915050565b610f6f826109ca565b67ffffffffffffffff811115610f8857610f87610abe565b5b610f928254610d26565b610f9d828285610ed9565b600060209050601f831160018114610fd05760008415610fbe578287015190505b610fc88582610f4a565b865550611030565b601f198416610fde86610dba565b60005b8281101561100657848901518255600182019150602085019450602081019050610fe1565b86831015611023578489015161101f601f891682610f2c565b8355505b6001600288020188555050505b505050505050565b600060608201905061104d600083018661097a565b61105a602083018561097a565b818103604083015261106c8184610a21565b9050949350505050565b600061108182610917565b91507fffffffffffffffffffffffffffffffffffffffffffffffffffffffffffffffff82036110b3576110b2610d57565b5b600182019050919050565b600081905092915050565b50565b60006110d96000836110be565b91506110e4826110c9565b600082019050919050565b60006110fa826110cc565b915081905091905056fea2646970667358221220903389d62d1b90c2eb799191572c61f471c3a6ae3fc88bc192904acababe42ed64736f6c63430008140033",
  "linkReferences": {},
  "deployedLinkReferences": {}
}